S015000050726F6A656B746172626569742E73726563B9
S11300000C94FE000C9412010C9412010C94120135
S11300100C9412010C9412010C9412010C94120110
S11300200C9412010C9412010C9412010C94120100
S11300300C9412010C9412010C9412010C941201F0
S11300400C9412010C9412010C9412010C941201E0
S11300500C9412010C9412010C9412010C941201D0
S11300600C9412010C9412010C9412010C941201C0
S11300700C9412010C9412010C9412010C941201B0
S11300800C9412010C9412010C9412010C941201A0
S11300900C9412010C9412010C9412010C94120190
S11300A00C9412010C9412010C9412010C94120180
S11300B00C9412010C9412010C9412010C94120170
S11300C00C9412010C9412010C9412010C94120160
S11300D00C9412010C9412010C9412010C94120150
S11300E00C9412010C9412010C9412010C94120140
S11300F00C9412010C9412010C9412010C94120130
S11301000C9412010C9412010C9412010C9412011F
S11301100C9412010C9412010C9412010C9412010F
S11301200C9412010C9412010C9412010C941201FF
S11301300C9412010C9412010C9412010C941201EF
S11301400C9412010C9412010C9412010C941201DF
S11301500C9412010C9412010C9412010C941201CF
S11301600C9412010C9412010C9412010C941201BF
S11301700C9412010C9412010C9412010C941201AF
S11301800C9412010C9412010C9412010C9412019F
S11301900C9412010C9412010C9412010C9412018F
S11301A00C9412010C9412010C9412010C9412017F
S11301B00C9412010C9412010C9412010C9412016F
S11301C00C9412010C9412010C9412010C9412015F
S11301D00C9412010C9412010C9412010C9412014F
S11301E00C9412010C9412010C9412010C9412013F
S11301F00C9412010C9412010C94120111241FBED0
S1130200CFEFCDBFDFE3DEBF00E00CBF20E2A0E014
S1130210B0E201C01D92A131B207E1F70E941401BE
S11302200C94D3020C9400001092000684E0809396
S1130230010282E0809302021092040281E0809322
S113024000028093200280E4809321028CE080935A
S1130250A6081092A70888E18093A40883E38093FA
S1130260A50888E0809340068FE08093A0068093E1
S113027080068091072090E0809590952091A406B7
S11302802F602093A4062091A406382F306F2323D7
S11302902093A406209184062F6020938406209145
S11302A084069595879595958795959587959595C4
S11302B08795822380938406E8EEF3E044E6F42EE7
S11302C047E050E20DE616E5DDE0CAE08091A806BD
S11302D090E08095909595958795959587959595BA
S11302E08795959587958170809308208091A806BD
S11302F090E080959095959587959595879595959A
S11303008795959587959595879581708093092014
S11303108091A80690E080959095082E892F000C76
S1130320881F990B000C881F991F817080930E20E1
S113033080910820882309F44AC0809120028068B3
S113034080932002809123028823E1F38091240288
S113035090912502809307208091072090E080955A
S113036090952091A4062F602093A4062091A406C2
S1130370382F306F23232093A406209184062F6006
S11303802093840620918406959587959595879565
S1130390959587959595879582238093840680917A
S11303A008208823A1F08091A80690E0809590957C
S11303B09595879595958795959587959595879521
S11303C0817080930820809108208111ECCF809166
S11303D00920882309F4B9C08091072027E2829F6D
S11303E0C001112480930F209093102020910F209E
S11303F03091102036952795369527953695279573
S1130400A5ECB0E20E94C402929582958F70892770
S11304109F708927806380930020C0900F20D09024
S1130420102096013695279536952795369527956C
S11304300E94C402929582958F7089279F708927A4
S11304408E9F90018F9F300D9E9F300D1124C60109
S1130450821B930B9C013695279536952795ABE720
S1130460B4E10E94C402969587958063809301202D
S1130470C0900F20D0901020960136952795369580
S1130480279536952795A5ECB0E20E94C402929573
S113049082958F7089279F7089278E9F90018F9FE7
S11304A0300D9E9F300D1124C21AD30A9601369541
S11304B0279536952795ABE7B4E10E94C40296953B
S11304C08795F89E9001F99E300D1124C601821B78
S11304D0930B9C01ADECBCEC0E94C40296958795ED
S11304E096958795969587958063809302200093CF
S11304F0032010930420D0930520C0930620A0E08D
S1130500B0E28091A10885FFFCCF8D918093A00873
S11305104A175B07B1F7809109208823B1F08091D5
S1130520A80690E0809590959595879595958795E3
S113053095958795959587959595879581708093E1
S11305400920809109208111EACF80910E2088230F
S113055009F4BCCE80910E20882309F4B7CE809193
S1130560A80690E080959095082E892F000C881F8E
S1130570990B000C881F991F817080930E20809125
S11305800E208111ECCFA2CEA29FB001B39FC00177
S1130590A39F700D811D1124911DB29F700D811DAB
S10D05A01124911D0895F894FFCF73
S9030000FC
