S015000050726F6A656B746172626569742E73726563B9
S11300000C94FE000C9412010C9412010C94120135
S11300100C9412010C9412010C9412010C94120110
S11300200C9412010C9412010C9412010C94120100
S11300300C9412010C9412010C9412010C941201F0
S11300400C9412010C9412010C9412010C941201E0
S11300500C9412010C9412010C9412010C941201D0
S11300600C9412010C9412010C9412010C941201C0
S11300700C9412010C9412010C9412010C941201B0
S11300800C9412010C9412010C9412010C941201A0
S11300900C9412010C9412010C9412010C94120190
S11300A00C9412010C9412010C9412010C94120180
S11300B00C9412010C9412010C9412010C94120170
S11300C00C9412010C9412010C9412010C94120160
S11300D00C9412010C9412010C9412010C94120150
S11300E00C9412010C9412010C9412010C94120140
S11300F00C9412010C9412010C9412010C94120130
S11301000C9412010C9412010C9412010C9412011F
S11301100C9412010C9412010C9412010C9412010F
S11301200C9412010C9412010C9412010C941201FF
S11301300C9412010C9412010C9412010C941201EF
S11301400C9412010C9412010C9412010C941201DF
S11301500C9412010C9412010C9412010C941201CF
S11301600C9412010C9412010C9412010C941201BF
S11301700C9412010C9412010C9412010C941201AF
S11301800C9412010C9412010C9412010C9412019F
S11301900C9412010C9412010C9412010C9412018F
S11301A00C9412010C9412010C9412010C9412017F
S11301B00C9412010C9412010C9412010C9412016F
S11301C00C9412010C9412010C9412010C9412015F
S11301D00C9412010C9412010C9412010C9412014F
S11301E00C9412010C9412010C9412010C9412013F
S11301F00C9412010C9412010C94120111241FBED0
S1130200CFEFCDBFDFE3DEBF00E00CBF20E2A0E014
S1130210B0E201C01D92A131B207E1F70E9434019E
S11302200C9486030C94000080959095E0EAF6E027
S11302302481207F24832481282B2F702483E0E8C9
S1130240F6E02481207F24832481807F992795955B
S11302508795959587959595879595958795922FEB
S11302609F70892B84830895CF93DF931F92CDB71A
S1130270DEB71092000684E08093010282E080934E
S113028002021092040281E0809300028093200213
S113029080E4809321028CE08093A6081092A70842
S11302A088E18093A40883E38093A50888E0809381
S11302B040068FE08093A00680938006198289818E
S11302C090E00E94140107E248EE53E014E6FAE0DD
S11302D0EDE08091A80690E080959095959587959E
S11302E09595879595958795959587958170809334
S11302F000208091A80690E080959095959587952B
S113030095958795959587959595879595958795D1
S11303108170809303208091A80690E08095909549
S1130320082E892F000C881F990B000C881F991F19
S1130330817080930E2080910020882309F453C09B
S11303408091200280688093200280912302882378
S1130350E1F38091240290912502809301209093EF
S1130360022080910120909102208983898190E06C
S1130370809590952091A406207F2093A406209137
S1130380A406282B2F702093A40620918406207F96
S11303902093840620918406807F992795958795DC
S11303A0959587959595879595958795922F9F70A7
S11303B0892B80938406809100208823A1F080916A
S11303C0A80690E080959095959587959595879545
S11303D09595879595958795817080930020809158
S11303E000208111ECCF80910320882309F4BDC043
S11303F02091012030910220029FC001039F900DA3
S1130400112480930F209093102020910F2030917D
S11304101020369527953695279536952795A5EC82
S1130420B0E20E947703929582958F7089279F701E
S11304308927806380930420E0900F20F09010209F
S113044097013695279536952795369527950E94D9
S11304507703929582958F7089279F708927849F4F
S11304609001859F300D949F300D1124C701821B8C
S1130470930B9C013695279536952795ABE7B4E108
S11304800E94770396958795806380930520E0907A
S11304900F20F090102097013695279536952795D3
S11304A036952795A5ECB0E20E9477039295829544
S11304B08F7089279F708927849F9001859F300DB5
S11304C0949F300D1124E21AF30A9701369527956B
S11304D036952795ABE7B4E10E9477039695879507
S11304E0189F9001199F300D1124C701821B930B93
S11304F09C01ADECBCEC0E9477039695879596958C
S1130500879596958795806380930620F0930720BE
S1130510E093082020E030E0D901AC5FBF4D8C911E
S11305208093A0088091A10886FFFCCF2F5F3F4FE6
S11305302430310589F7809103208823B1F080911C
S1130540A80690E0809590959595879595958795C3
S113055095958795959587959595879581708093C1
S11305600320809103208111EACF80910E208823FB
S113057009F4AFCE2091012030910220029FC001E6
S1130580039F900D112480930F20909310202091AD
S11305900F2030911020369527953695279536955E
S11305A02795A5ECB0E20E947703929582958F700F
S11305B089279F708927806380930420E0900F200F
S11305C0F090102097013695279536952795369506
S11305D027950E947703929582958F7089279F7043
S11305E08927849F9001859F300D949F300D11249D
S11305F0C701821B930B9C01369527953695279549
S1130600ABE7B4E10E947703969587958063809366
S11306100520E0900F20F090102097013695279543
S11306203695279536952795A5ECB0E20E94770379
S1130630929582958F7089279F708927849F900156
S1130640859F300D949F300D1124E21AF30A97010F
S11306503695279536952795ABE7B4E10E94770345
S113066096958795189F9001199F300D1124C70105
S1130670821B930B9C01ADECBCEC0E947703969516
S113068087959695879596958795806380930620A0
S1130690F0930720E093082020E030E0D901AC5F1C
S11306A0BF4D8C918093A0088091A10886FFFCCF58
S11306B02F5F3F4F2430310589F780910E20882326
S11306C009F407CE8091A80690E080959095082EB5
S11306D0892F000C881F990B000C881F991F8170AB
S11306E080930E2080910E208111ECCFF2CDA29F39
S11306F0B001B39FC001A39F700D811D1124911DF2
S1130700B29F700D811D1124911D0895F894FFCF9F
S9030000FC
